{
  "_format": "hh-sol-artifact-1",
  "contractName": "AfriverseTales",
  "sourceName": "contracts/AfriverseTales.sol",
  "abi": [
    {
      "inputs": [
        {
          "internalType": "string",
          "name": "name",
          "type": "string"
        },
        {
          "internalType": "string",
          "name": "symbol",
          "type": "string"
        },
        {
          "internalType": "address",
          "name": "royaltyRecipient",
          "type": "address"
        },
        {
          "internalType": "uint96",
          "name": "royaltyFeeBps",
          "type": "uint96"
        }
      ],
      "stateMutability": "nonpayable",
      "type": "constructor"
    },
    {
      "inputs": [
        {
          "internalType": "uint256",
          "name": "numerator",
          "type": "uint256"
        },
        {
          "internalType": "uint256",
          "name": "denominator",
          "type": "uint256"
        }
      ],
      "name": "ERC2981InvalidDefaultRoyalty",
      "type": "error"
    },
    {
      "inputs": [
        {
          "internalType": "address",
          "name": "receiver",
          "type": "address"
        }
      ],
      "name": "ERC2981InvalidDefaultRoyaltyReceiver",
      "type": "error"
    },
    {
      "inputs": [
        {
          "internalType": "uint256",
          "name": "tokenId",
          "type": "uint256"
        },
        {
          "internalType": "uint256",
          "name": "numerator",
          "type": "uint256"
        },
        {
          "internalType": "uint256",
          "name": "denominator",
          "type": "uint256"
        }
      ],
      "name": "ERC2981InvalidTokenRoyalty",
      "type": "error"
    },
    {
      "inputs": [
        {
          "internalType": "uint256",
          "name": "tokenId",
          "type": "uint256"
        },
        {
          "internalType": "address",
          "name": "receiver",
          "type": "address"
        }
      ],
      "name": "ERC2981InvalidTokenRoyaltyReceiver",
      "type": "error"
    },
    {
      "inputs": [
        {
          "internalType": "address",
          "name": "sender",
          "type": "address"
        },
        {
          "internalType": "uint256",
          "name": "tokenId",
          "type": "uint256"
        },
        {
          "internalType": "address",
          "name": "owner",
          "type": "address"
        }
      ],
      "name": "ERC721IncorrectOwner",
      "type": "error"
    },
    {
      "inputs": [
        {
          "internalType": "address",
          "name": "operator",
          "type": "address"
        },
        {
          "internalType": "uint256",
          "name": "tokenId",
          "type": "uint256"
        }
      ],
      "name": "ERC721InsufficientApproval",
      "type": "error"
    },
    {
      "inputs": [
        {
          "internalType": "address",
          "name": "approver",
          "type": "address"
        }
      ],
      "name": "ERC721InvalidApprover",
      "type": "error"
    },
    {
      "inputs": [
        {
          "internalType": "address",
          "name": "operator",
          "type": "address"
        }
      ],
      "name": "ERC721InvalidOperator",
      "type": "error"
    },
    {
      "inputs": [
        {
          "internalType": "address",
          "name": "owner",
          "type": "address"
        }
      ],
      "name": "ERC721InvalidOwner",
      "type": "error"
    },
    {
      "inputs": [
        {
          "internalType": "address",
          "name": "receiver",
          "type": "address"
        }
      ],
      "name": "ERC721InvalidReceiver",
      "type": "error"
    },
    {
      "inputs": [
        {
          "internalType": "address",
          "name": "sender",
          "type": "address"
        }
      ],
      "name": "ERC721InvalidSender",
      "type": "error"
    },
    {
      "inputs": [
        {
          "internalType": "uint256",
          "name": "tokenId",
          "type": "uint256"
        }
      ],
      "name": "ERC721NonexistentToken",
      "type": "error"
    },
    {
      "inputs": [
        {
          "internalType": "address",
          "name": "owner",
          "type": "address"
        }
      ],
      "name": "OwnableInvalidOwner",
      "type": "error"
    },
    {
      "inputs": [
        {
          "internalType": "address",
          "name": "account",
          "type": "address"
        }
      ],
      "name": "OwnableUnauthorizedAccount",
      "type": "error"
    },
    {
      "anonymous": false,
      "inputs": [
        {
          "indexed": true,
          "internalType": "address",
          "name": "owner",
          "type": "address"
        },
        {
          "indexed": true,
          "internalType": "address",
          "name": "approved",
          "type": "address"
        },
        {
          "indexed": true,
          "internalType": "uint256",
          "name": "tokenId",
          "type": "uint256"
        }
      ],
      "name": "Approval",
      "type": "event"
    },
    {
      "anonymous": false,
      "inputs": [
        {
          "indexed": true,
          "internalType": "address",
          "name": "owner",
          "type": "address"
        },
        {
          "indexed": true,
          "internalType": "address",
          "name": "operator",
          "type": "address"
        },
        {
          "indexed": false,
          "internalType": "bool",
          "name": "approved",
          "type": "bool"
        }
      ],
      "name": "ApprovalForAll",
      "type": "event"
    },
    {
      "anonymous": false,
      "inputs": [
        {
          "indexed": false,
          "internalType": "uint256",
          "name": "_fromTokenId",
          "type": "uint256"
        },
        {
          "indexed": false,
          "internalType": "uint256",
          "name": "_toTokenId",
          "type": "uint256"
        }
      ],
      "name": "BatchMetadataUpdate",
      "type": "event"
    },
    {
      "anonymous": false,
      "inputs": [
        {
          "indexed": false,
          "internalType": "uint256",
          "name": "_tokenId",
          "type": "uint256"
        }
      ],
      "name": "MetadataUpdate",
      "type": "event"
    },
    {
      "anonymous": false,
      "inputs": [
        {
          "indexed": true,
          "internalType": "address",
          "name": "previousOwner",
          "type": "address"
        },
        {
          "indexed": true,
          "internalType": "address",
          "name": "newOwner",
          "type": "address"
        }
      ],
      "name": "OwnershipTransferred",
      "type": "event"
    },
    {
      "anonymous": false,
      "inputs": [
        {
          "indexed": true,
          "internalType": "address",
          "name": "recipient",
          "type": "address"
        },
        {
          "indexed": false,
          "internalType": "uint96",
          "name": "feeBps",
          "type": "uint96"
        }
      ],
      "name": "RoyaltiesUpdated",
      "type": "event"
    },
    {
      "anonymous": false,
      "inputs": [
        {
          "indexed": true,
          "internalType": "uint256",
          "name": "tokenId",
          "type": "uint256"
        },
        {
          "indexed": false,
          "internalType": "string",
          "name": "ipfsHash",
          "type": "string"
        },
        {
          "indexed": true,
          "internalType": "address",
          "name": "author",
          "type": "address"
        },
        {
          "indexed": false,
          "internalType": "string",
          "name": "tribe",
          "type": "string"
        },
        {
          "indexed": false,
          "internalType": "uint256",
          "name": "timestamp",
          "type": "uint256"
        }
      ],
      "name": "StoryMinted",
      "type": "event"
    },
    {
      "anonymous": false,
      "inputs": [
        {
          "indexed": true,
          "internalType": "address",
          "name": "from",
          "type": "address"
        },
        {
          "indexed": true,
          "internalType": "address",
          "name": "to",
          "type": "address"
        },
        {
          "indexed": true,
          "internalType": "uint256",
          "name": "tokenId",
          "type": "uint256"
        }
      ],
      "name": "Transfer",
      "type": "event"
    },
    {
      "inputs": [
        {
          "internalType": "address",
          "name": "to",
          "type": "address"
        },
        {
          "internalType": "uint256",
          "name": "tokenId",
          "type": "uint256"
        }
      ],
      "name": "approve",
      "outputs": [],
      "stateMutability": "nonpayable",
      "type": "function"
    },
    {
      "inputs": [
        {
          "internalType": "address",
          "name": "owner",
          "type": "address"
        }
      ],
      "name": "balanceOf",
      "outputs": [
        {
          "internalType": "uint256",
          "name": "",
          "type": "uint256"
        }
      ],
      "stateMutability": "view",
      "type": "function"
    },
    {
      "inputs": [
        {
          "internalType": "uint256",
          "name": "tokenId",
          "type": "uint256"
        }
      ],
      "name": "getApproved",
      "outputs": [
        {
          "internalType": "address",
          "name": "",
          "type": "address"
        }
      ],
      "stateMutability": "view",
      "type": "function"
    },
    {
      "inputs": [
        {
          "internalType": "uint256",
          "name": "tokenId",
          "type": "uint256"
        }
      ],
      "name": "getIPFSHash",
      "outputs": [
        {
          "internalType": "string",
          "name": "",
          "type": "string"
        }
      ],
      "stateMutability": "view",
      "type": "function"
    },
    {
      "inputs": [],
      "name": "getRoyalties",
      "outputs": [
        {
          "internalType": "address",
          "name": "recipient",
          "type": "address"
        },
        {
          "internalType": "uint96",
          "name": "feeBps",
          "type": "uint96"
        }
      ],
      "stateMutability": "view",
      "type": "function"
    },
    {
      "inputs": [
        {
          "internalType": "uint256",
          "name": "tokenId",
          "type": "uint256"
        }
      ],
      "name": "getStoryMetadata",
      "outputs": [
        {
          "components": [
            {
              "internalType": "address",
              "name": "author",
              "type": "address"
            },
            {
              "internalType": "string",
              "name": "tribe",
              "type": "string"
            },
            {
              "internalType": "string",
              "name": "language",
              "type": "string"
            },
            {
              "internalType": "uint256",
              "name": "timestamp",
              "type": "uint256"
            },
            {
              "internalType": "string",
              "name": "ipfsHash",
              "type": "string"
            }
          ],
          "internalType": "struct AfriverseTales.StoryMetadata",
          "name": "",
          "type": "tuple"
        }
      ],
      "stateMutability": "view",
      "type": "function"
    },
    {
      "inputs": [
        {
          "internalType": "address",
          "name": "owner",
          "type": "address"
        },
        {
          "internalType": "address",
          "name": "operator",
          "type": "address"
        }
      ],
      "name": "isApprovedForAll",
      "outputs": [
        {
          "internalType": "bool",
          "name": "",
          "type": "bool"
        }
      ],
      "stateMutability": "view",
      "type": "function"
    },
    {
      "inputs": [
        {
          "internalType": "address",
          "name": "to",
          "type": "address"
        },
        {
          "internalType": "string",
          "name": "ipfsHash",
          "type": "string"
        },
        {
          "internalType": "string",
          "name": "tribe",
          "type": "string"
        },
        {
          "internalType": "string",
          "name": "language",
          "type": "string"
        }
      ],
      "name": "mintStory",
      "outputs": [
        {
          "internalType": "uint256",
          "name": "",
          "type": "uint256"
        }
      ],
      "stateMutability": "nonpayable",
      "type": "function"
    },
    {
      "inputs": [
        {
          "internalType": "address",
          "name": "to",
          "type": "address"
        },
        {
          "internalType": "string",
          "name": "ipfsHash",
          "type": "string"
        },
        {
          "internalType": "string",
          "name": "tribe",
          "type": "string"
        },
        {
          "internalType": "string",
          "name": "language",
          "type": "string"
        },
        {
          "internalType": "address",
          "name": "author",
          "type": "address"
        }
      ],
      "name": "mintStoryWithAuthor",
      "outputs": [
        {
          "internalType": "uint256",
          "name": "",
          "type": "uint256"
        }
      ],
      "stateMutability": "nonpayable",
      "type": "function"
    },
    {
      "inputs": [],
      "name": "name",
      "outputs": [
        {
          "internalType": "string",
          "name": "",
          "type": "string"
        }
      ],
      "stateMutability": "view",
      "type": "function"
    },
    {
      "inputs": [],
      "name": "owner",
      "outputs": [
        {
          "internalType": "address",
          "name": "",
          "type": "address"
        }
      ],
      "stateMutability": "view",
      "type": "function"
    },
    {
      "inputs": [
        {
          "internalType": "uint256",
          "name": "tokenId",
          "type": "uint256"
        }
      ],
      "name": "ownerOf",
      "outputs": [
        {
          "internalType": "address",
          "name": "",
          "type": "address"
        }
      ],
      "stateMutability": "view",
      "type": "function"
    },
    {
      "inputs": [],
      "name": "renounceOwnership",
      "outputs": [],
      "stateMutability": "nonpayable",
      "type": "function"
    },
    {
      "inputs": [
        {
          "internalType": "uint256",
          "name": "tokenId",
          "type": "uint256"
        },
        {
          "internalType": "uint256",
          "name": "salePrice",
          "type": "uint256"
        }
      ],
      "name": "royaltyInfo",
      "outputs": [
        {
          "internalType": "address",
          "name": "receiver",
          "type": "address"
        },
        {
          "internalType": "uint256",
          "name": "amount",
          "type": "uint256"
        }
      ],
      "stateMutability": "view",
      "type": "function"
    },
    {
      "inputs": [
        {
          "internalType": "address",
          "name": "from",
          "type": "address"
        },
        {
          "internalType": "address",
          "name": "to",
          "type": "address"
        },
        {
          "internalType": "uint256",
          "name": "tokenId",
          "type": "uint256"
        }
      ],
      "name": "safeTransferFrom",
      "outputs": [],
      "stateMutability": "nonpayable",
      "type": "function"
    },
    {
      "inputs": [
        {
          "internalType": "address",
          "name": "from",
          "type": "address"
        },
        {
          "internalType": "address",
          "name": "to",
          "type": "address"
        },
        {
          "internalType": "uint256",
          "name": "tokenId",
          "type": "uint256"
        },
        {
          "internalType": "bytes",
          "name": "data",
          "type": "bytes"
        }
      ],
      "name": "safeTransferFrom",
      "outputs": [],
      "stateMutability": "nonpayable",
      "type": "function"
    },
    {
      "inputs": [
        {
          "internalType": "address",
          "name": "operator",
          "type": "address"
        },
        {
          "internalType": "bool",
          "name": "approved",
          "type": "bool"
        }
      ],
      "name": "setApprovalForAll",
      "outputs": [],
      "stateMutability": "nonpayable",
      "type": "function"
    },
    {
      "inputs": [
        {
          "internalType": "address",
          "name": "recipient",
          "type": "address"
        },
        {
          "internalType": "uint96",
          "name": "feeBps",
          "type": "uint96"
        }
      ],
      "name": "setRoyalties",
      "outputs": [],
      "stateMutability": "nonpayable",
      "type": "function"
    },
    {
      "inputs": [
        {
          "internalType": "bytes4",
          "name": "interfaceId",
          "type": "bytes4"
        }
      ],
      "name": "supportsInterface",
      "outputs": [
        {
          "internalType": "bool",
          "name": "",
          "type": "bool"
        }
      ],
      "stateMutability": "view",
      "type": "function"
    },
    {
      "inputs": [],
      "name": "symbol",
      "outputs": [
        {
          "internalType": "string",
          "name": "",
          "type": "string"
        }
      ],
      "stateMutability": "view",
      "type": "function"
    },
    {
      "inputs": [
        {
          "internalType": "uint256",
          "name": "tokenId",
          "type": "uint256"
        }
      ],
      "name": "tokenURI",
      "outputs": [
        {
          "internalType": "string",
          "name": "",
          "type": "string"
        }
      ],
      "stateMutability": "view",
      "type": "function"
    },
    {
      "inputs": [],
      "name": "totalSupply",
      "outputs": [
        {
          "internalType": "uint256",
          "name": "",
          "type": "uint256"
        }
      ],
      "stateMutability": "view",
      "type": "function"
    },
    {
      "inputs": [
        {
          "internalType": "address",
          "name": "from",
          "type": "address"
        },
        {
          "internalType": "address",
          "name": "to",
          "type": "address"
        },
        {
          "internalType": "uint256",
          "name": "tokenId",
          "type": "uint256"
        }
      ],
      "name": "transferFrom",
      "outputs": [],
      "stateMutability": "nonpayable",
      "type": "function"
    },
    {
      "inputs": [
        {
          "internalType": "address",
          "name": "newOwner",
          "type": "address"
        }
      ],
      "name": "transferOwnership",
      "outputs": [],
      "stateMutability": "nonpayable",
      "type": "function"
    }
  ],
  "bytecode": "0x60806040523480156200001157600080fd5b50604051620027203803806200272083398101604081905262000034916200033a565b338484600062000045838262000475565b50600162000054828262000475565b5050506001600160a01b0381166200008757604051631e4fbdf760e01b8152600060048201526024015b60405180910390fd5b62000092816200017c565b506001600160a01b038216620000eb5760405162461bcd60e51b815260206004820152601960248201527f496e76616c696420726f79616c747920726563697069656e740000000000000060448201526064016200007e565b612710816001600160601b03161115620001485760405162461bcd60e51b815260206004820152601860248201527f526f79616c74792066656520657863656564732031303025000000000000000060448201526064016200007e565b6001600160601b038116600160a01b026001600160a01b03831617600d55620001728282620001ce565b5050505062000541565b600980546001600160a01b038381166001600160a01b0319831681179093556040519116919082907f8be0079c531659141344cd1fd0a4f28419497f9722a3daafe3b4186f6b6457e090600090a35050565b6127106001600160601b0382168110156200020f57604051636f483d0960e01b81526001600160601b0383166004820152602481018290526044016200007e565b6001600160a01b0383166200023b57604051635b6cc80560e11b8152600060048201526024016200007e565b50604080518082019091526001600160a01b039092168083526001600160601b039091166020909201829052600160a01b90910217600755565b634e487b7160e01b600052604160045260246000fd5b600082601f8301126200029d57600080fd5b81516001600160401b0380821115620002ba57620002ba62000275565b604051601f8301601f19908116603f01168101908282118183101715620002e557620002e562000275565b816040528381526020925086838588010111156200030257600080fd5b600091505b8382101562000326578582018301518183018401529082019062000307565b600093810190920192909252949350505050565b600080600080608085870312156200035157600080fd5b84516001600160401b03808211156200036957600080fd5b62000377888389016200028b565b955060208701519150808211156200038e57600080fd5b506200039d878288016200028b565b604087015190945090506001600160a01b0381168114620003bd57600080fd5b60608601519092506001600160601b0381168114620003db57600080fd5b939692955090935050565b600181811c90821680620003fb57607f821691505b6020821081036200041c57634e487b7160e01b600052602260045260246000fd5b50919050565b601f8211156200047057600081815260208120601f850160051c810160208610156200044b5750805b601f850160051c820191505b818110156200046c5782815560010162000457565b5050505b505050565b81516001600160401b0381111562000491576200049162000275565b620004a981620004a28454620003e6565b8462000422565b602080601f831160018114620004e15760008415620004c85750858301515b600019600386901b1c1916600185901b1785556200046c565b600085815260208120601f198616915b828110156200051257888601518255948401946001909101908401620004f1565b5085821015620005315787850151600019600388901b60f8161c191681555b5050505050600190811b01905550565b6121cf80620005516000396000f3fe608060405234801561001057600080fd5b50600436106101585760003560e01c8063715018a6116100c3578063a22cb4651161007c578063a22cb46514610313578063b88d4fde14610326578063c21b471b14610339578063c87b56dd1461034c578063e985e9c51461035f578063f2fde38b1461037257600080fd5b8063715018a6146102ac5780637189567c146102b457806375305532146102d45780638da5cb5b146102e757806395d89b41146102f85780639babb5421461030057600080fd5b80632a55205a116101155780632a55205a146101ff57806333df048e1461023157806340307d951461026057806342842e0e146102735780636352211e1461028657806370a082311461029957600080fd5b806301ffc9a71461015d57806306fdde0314610185578063081812fc1461019a578063095ea7b3146101c557806318160ddd146101da57806323b872dd146101ec575b600080fd5b61017061016b366004611a28565b610385565b60405190151581526020015b60405180910390f35b61018d610396565b60405161017c9190611a95565b6101ad6101a8366004611aa8565b610428565b6040516001600160a01b03909116815260200161017c565b6101d86101d3366004611add565b610451565b005b600a545b60405190815260200161017c565b6101d86101fa366004611b07565b610460565b61021261020d366004611b43565b6104f0565b604080516001600160a01b03909316835260208301919091520161017c565b600d54604080516001600160a01b0383168152600160a01b9092046001600160601b031660208301520161017c565b61018d61026e366004611aa8565b610575565b6101d8610281366004611b07565b610671565b6101ad610294366004611aa8565b610691565b6101de6102a7366004611b65565b61069c565b6101d86106e4565b6102c76102c2366004611aa8565b6106f8565b60405161017c9190611b80565b6101de6102e2366004611ca9565b610981565b6009546001600160a01b03166101ad565b61018d610b7e565b6101de61030e366004611d42565b610b8d565b6101d8610321366004611dec565b610de2565b6101d8610334366004611e28565b610ded565b6101d8610347366004611e98565b610e05565b61018d61035a366004611aa8565b610f31565b61017061036d366004611ed0565b610f3c565b6101d8610380366004611b65565b610f6a565b600061039082610fa8565b92915050565b6060600080546103a590611f03565b80601f01602080910402602001604051908101604052809291908181526020018280546103d190611f03565b801561041e5780601f106103f35761010080835404028352916020019161041e565b820191906000526020600020905b81548152906001019060200180831161040157829003601f168201915b5050505050905090565b600061043382610fcd565b506000828152600460205260409020546001600160a01b0316610390565b61045c828233611006565b5050565b6001600160a01b03821661048f57604051633250574960e11b8152600060048201526024015b60405180910390fd5b600061049c838333611013565b9050836001600160a01b0316816001600160a01b0316146104ea576040516364283d7b60e01b81526001600160a01b0380861660048301526024820184905282166044820152606401610486565b50505050565b600082815260086020526040812080548291906001600160a01b03811690600160a01b90046001600160601b0316816105445750506007546001600160a01b03811690600160a01b90046001600160601b03165b600061271061055c6001600160601b03841689611f53565b6105669190611f6a565b92989297509195505050505050565b6000818152600260205260409020546060906001600160a01b03166105d35760405162461bcd60e51b8152602060048201526014602482015273151bdad95b88191bd95cc81b9bdd08195e1a5cdd60621b6044820152606401610486565b6000828152600c6020526040902080546105ec90611f03565b80601f016020809104026020016040519081016040528092919081815260200182805461061890611f03565b80156106655780601f1061063a57610100808354040283529160200191610665565b820191906000526020600020905b81548152906001019060200180831161064857829003601f168201915b50505050509050919050565b61068c83838360405180602001604052806000815250610ded565b505050565b600061039082610fcd565b60006001600160a01b0382166106c8576040516322718ad960e21b815260006004820152602401610486565b506001600160a01b031660009081526003602052604090205490565b6106ec61110c565b6106f66000611139565b565b6107336040518060a0016040528060006001600160a01b03168152602001606081526020016060815260200160008152602001606081525090565b6000828152600260205260409020546001600160a01b031661078e5760405162461bcd60e51b8152602060048201526014602482015273151bdad95b88191bd95cc81b9bdd08195e1a5cdd60621b6044820152606401610486565b6000828152600b6020908152604091829020825160a0810190935280546001600160a01b0316835260018101805491928401916107ca90611f03565b80601f01602080910402602001604051908101604052809291908181526020018280546107f690611f03565b80156108435780601f1061081857610100808354040283529160200191610843565b820191906000526020600020905b81548152906001019060200180831161082657829003601f168201915b5050505050815260200160028201805461085c90611f03565b80601f016020809104026020016040519081016040528092919081815260200182805461088890611f03565b80156108d55780601f106108aa576101008083540402835291602001916108d5565b820191906000526020600020905b8154815290600101906020018083116108b857829003601f168201915b50505050508152602001600382015481526020016004820180546108f890611f03565b80601f016020809104026020016040519081016040528092919081815260200182805461092490611f03565b80156109715780601f1061094657610100808354040283529160200191610971565b820191906000526020600020905b81548152906001019060200180831161095457829003601f168201915b5050505050815250509050919050565b60006001600160a01b0385166109d95760405162461bcd60e51b815260206004820152601b60248201527f43616e6e6f74206d696e7420746f207a65726f206164647265737300000000006044820152606401610486565b6000845111610a265760405162461bcd60e51b81526020600482015260196024820152784950465320686173682063616e6e6f7420626520656d70747960381b6044820152606401610486565b600a80549081906000610a3883611f8c565b9190505550610a47868261118b565b600085604051602001610a5a9190611fa5565b6040516020818303038152906040529050610a7582826111a5565b6040805160a0810182526001600160a01b0389811682526020808301898152838501899052426060850152608084018b90526000878152600b909252939020825181546001600160a01b031916921691909117815591519091906001820190610ade908261201a565b5060408201516002820190610af3908261201a565b506060820151600382015560808201516004820190610b12908261201a565b5050506000828152600c60205260409020610b2d878261201a565b50866001600160a01b0316827f8c0c9e2e9e297eb1339e79ac114cc2de5642aae6f9d6c0d1313a6d9d88374260888842604051610b6c939291906120da565b60405180910390a35095945050505050565b6060600180546103a590611f03565b6000610b9761110c565b6001600160a01b038616610bed5760405162461bcd60e51b815260206004820152601b60248201527f43616e6e6f74206d696e7420746f207a65726f206164647265737300000000006044820152606401610486565b6001600160a01b038216610c3c5760405162461bcd60e51b8152602060048201526016602482015275496e76616c696420617574686f72206164647265737360501b6044820152606401610486565b6000855111610c895760405162461bcd60e51b81526020600482015260196024820152784950465320686173682063616e6e6f7420626520656d70747960381b6044820152606401610486565b600a80549081906000610c9b83611f8c565b9190505550610caa878261118b565b600086604051602001610cbd9190611fa5565b6040516020818303038152906040529050610cd882826111a5565b6040805160a0810182526001600160a01b03868116825260208083018a81528385018a9052426060850152608084018c90526000878152600b909252939020825181546001600160a01b031916921691909117815591519091906001820190610d41908261201a565b5060408201516002820190610d56908261201a565b506060820151600382015560808201516004820190610d75908261201a565b5050506000828152600c60205260409020610d90888261201a565b50836001600160a01b0316827f8c0c9e2e9e297eb1339e79ac114cc2de5642aae6f9d6c0d1313a6d9d88374260898942604051610dcf939291906120da565b60405180910390a3509695505050505050565b61045c3383836111f5565b610df8848484610460565b6104ea3385858585611294565b610e0d61110c565b6001600160a01b038216610e635760405162461bcd60e51b815260206004820152601960248201527f496e76616c696420726f79616c747920726563697069656e74000000000000006044820152606401610486565b612710816001600160601b03161115610ebe5760405162461bcd60e51b815260206004820152601860248201527f526f79616c7479206665652065786365656473203130302500000000000000006044820152606401610486565b6001600160601b038116600160a01b026001600160a01b03831617600d55610ee682826113bf565b6040516001600160601b03821681526001600160a01b038316907f0587c41e09c745126dcdaf3e17a7ff985ea275f1da6101ff247d214e99c0c9199060200160405180910390a25050565b606061039082611462565b6001600160a01b03918216600090815260056020908152604080832093909416825291909152205460ff1690565b610f7261110c565b6001600160a01b038116610f9c57604051631e4fbdf760e01b815260006004820152602401610486565b610fa581611139565b50565b60006001600160e01b0319821663152a902d60e11b1480610390575061039082611573565b6000818152600260205260408120546001600160a01b03168061039057604051637e27328960e01b815260048101849052602401610486565b61068c8383836001611598565b6000828152600260205260408120546001600160a01b03908116908316156110405761104081848661169e565b6001600160a01b0381161561107e5761105d600085600080611598565b6001600160a01b038116600090815260036020526040902080546000190190555b6001600160a01b038516156110ad576001600160a01b0385166000908152600360205260409020805460010190555b60008481526002602052604080822080546001600160a01b0319166001600160a01b0389811691821790925591518793918516917fddf252ad1be2c89b69c2b068fc378daa952ba7f163c4a11628f55a4df523b3ef91a4949350505050565b6009546001600160a01b031633146106f65760405163118cdaa760e01b8152336004820152602401610486565b600980546001600160a01b038381166001600160a01b0319831681179093556040519116919082907f8be0079c531659141344cd1fd0a4f28419497f9722a3daafe3b4186f6b6457e090600090a35050565b61045c828260405180602001604052806000815250611702565b60008281526006602052604090206111bd828261201a565b506040518281527ff8e1a15aba9398e019f0b49df1a4fde98ee17ae345cb5f6b5e2c27f5033e8ce79060200160405180910390a15050565b6001600160a01b03821661122757604051630b61174360e31b81526001600160a01b0383166004820152602401610486565b6001600160a01b03838116600081815260056020908152604080832094871680845294825291829020805460ff191686151590811790915591519182527f17307eab39ab6107e8899845ad3d59bd9653f200f220920489ca2b5937696c31910160405180910390a3505050565b6001600160a01b0383163b156113b857604051630a85bd0160e11b81526001600160a01b0384169063150b7a02906112d6908890889087908790600401612110565b6020604051808303816000875af1925050508015611311575060408051601f3d908101601f1916820190925261130e9181019061214d565b60015b61137a573d80801561133f576040519150601f19603f3d011682016040523d82523d6000602084013e611344565b606091505b50805160000361137257604051633250574960e11b81526001600160a01b0385166004820152602401610486565b805160208201fd5b6001600160e01b03198116630a85bd0160e11b146113b657604051633250574960e11b81526001600160a01b0385166004820152602401610486565b505b5050505050565b6127106001600160601b0382168110156113fe57604051636f483d0960e01b81526001600160601b038316600482015260248101829052604401610486565b6001600160a01b03831661142857604051635b6cc80560e11b815260006004820152602401610486565b50604080518082019091526001600160a01b039092168083526001600160601b039091166020909201829052600160a01b90910217600755565b606061146d82610fcd565b506000828152600660205260408120805461148790611f03565b80601f01602080910402602001604051908101604052809291908181526020018280546114b390611f03565b80156115005780601f106114d557610100808354040283529160200191611500565b820191906000526020600020905b8154815290600101906020018083116114e357829003601f168201915b50505050509050600061151e60408051602081019091526000815290565b90508051600003611530575092915050565b81511561156257808260405160200161154a92919061216a565b60405160208183030381529060405292505050919050565b61156b8461171a565b949350505050565b60006001600160e01b03198216632483248360e11b148061039057506103908261178f565b80806115ac57506001600160a01b03821615155b1561166e5760006115bc84610fcd565b90506001600160a01b038316158015906115e85750826001600160a01b0316816001600160a01b031614155b80156115fb57506115f98184610f3c565b155b156116245760405163a9fbf51f60e01b81526001600160a01b0384166004820152602401610486565b811561166c5783856001600160a01b0316826001600160a01b03167f8c5be1e5ebec7d5bd14f71427d1e84f3dd0314c0f7b2291e5b200ac8c7c3b92560405160405180910390a45b505b5050600090815260046020526040902080546001600160a01b0319166001600160a01b0392909216919091179055565b6116a98383836117df565b61068c576001600160a01b0383166116d757604051637e27328960e01b815260048101829052602401610486565b60405163177e802f60e01b81526001600160a01b038316600482015260248101829052604401610486565b61170c8383611842565b61068c336000858585611294565b606061172582610fcd565b50600061173d60408051602081019091526000815290565b9050600081511161175d5760405180602001604052806000815250611788565b80611767846118a7565b60405160200161177892919061216a565b6040516020818303038152906040525b9392505050565b60006001600160e01b031982166380ac58cd60e01b14806117c057506001600160e01b03198216635b5e139f60e01b145b8061039057506301ffc9a760e01b6001600160e01b0319831614610390565b60006001600160a01b0383161580159061156b5750826001600160a01b0316846001600160a01b0316148061181957506118198484610f3c565b8061156b5750506000908152600460205260409020546001600160a01b03908116911614919050565b6001600160a01b03821661186c57604051633250574960e11b815260006004820152602401610486565b600061187a83836000611013565b90506001600160a01b0381161561068c576040516339e3563760e11b815260006004820152602401610486565b606060006118b48361193a565b600101905060008167ffffffffffffffff8111156118d4576118d4611bfd565b6040519080825280601f01601f1916602001820160405280156118fe576020820181803683370190505b5090508181016020015b600019016f181899199a1a9b1b9c1cb0b131b232b360811b600a86061a8153600a850494508461190857509392505050565b60008072184f03e93ff9f4daa797ed6e38ed64bf6a1f0160401b83106119795772184f03e93ff9f4daa797ed6e38ed64bf6a1f0160401b830492506040015b6d04ee2d6d415b85acef810000000083106119a5576d04ee2d6d415b85acef8100000000830492506020015b662386f26fc1000083106119c357662386f26fc10000830492506010015b6305f5e10083106119db576305f5e100830492506008015b61271083106119ef57612710830492506004015b60648310611a01576064830492506002015b600a83106103905760010192915050565b6001600160e01b031981168114610fa557600080fd5b600060208284031215611a3a57600080fd5b813561178881611a12565b60005b83811015611a60578181015183820152602001611a48565b50506000910152565b60008151808452611a81816020860160208601611a45565b601f01601f19169290920160200192915050565b6020815260006117886020830184611a69565b600060208284031215611aba57600080fd5b5035919050565b80356001600160a01b0381168114611ad857600080fd5b919050565b60008060408385031215611af057600080fd5b611af983611ac1565b946020939093013593505050565b600080600060608486031215611b1c57600080fd5b611b2584611ac1565b9250611b3360208501611ac1565b9150604084013590509250925092565b60008060408385031215611b5657600080fd5b50508035926020909101359150565b600060208284031215611b7757600080fd5b61178882611ac1565b602080825282516001600160a01b03168282015282015160a06040830152600090611bae60c0840182611a69565b90506040840151601f1980858403016060860152611bcc8383611a69565b92506060860151608086015260808601519150808584030160a086015250611bf48282611a69565b95945050505050565b634e487b7160e01b600052604160045260246000fd5b600067ffffffffffffffff80841115611c2e57611c2e611bfd565b604051601f8501601f19908116603f01168101908282118183101715611c5657611c56611bfd565b81604052809350858152868686011115611c6f57600080fd5b858560208301376000602087830101525050509392505050565b600082601f830112611c9a57600080fd5b61178883833560208501611c13565b60008060008060808587031215611cbf57600080fd5b611cc885611ac1565b9350602085013567ffffffffffffffff80821115611ce557600080fd5b611cf188838901611c89565b94506040870135915080821115611d0757600080fd5b611d1388838901611c89565b93506060870135915080821115611d2957600080fd5b50611d3687828801611c89565b91505092959194509250565b600080600080600060a08688031215611d5a57600080fd5b611d6386611ac1565b9450602086013567ffffffffffffffff80821115611d8057600080fd5b611d8c89838a01611c89565b95506040880135915080821115611da257600080fd5b611dae89838a01611c89565b94506060880135915080821115611dc457600080fd5b50611dd188828901611c89565b925050611de060808701611ac1565b90509295509295909350565b60008060408385031215611dff57600080fd5b611e0883611ac1565b915060208301358015158114611e1d57600080fd5b809150509250929050565b60008060008060808587031215611e3e57600080fd5b611e4785611ac1565b9350611e5560208601611ac1565b925060408501359150606085013567ffffffffffffffff811115611e7857600080fd5b8501601f81018713611e8957600080fd5b611d3687823560208401611c13565b60008060408385031215611eab57600080fd5b611eb483611ac1565b915060208301356001600160601b0381168114611e1d57600080fd5b60008060408385031215611ee357600080fd5b611eec83611ac1565b9150611efa60208401611ac1565b90509250929050565b600181811c90821680611f1757607f821691505b602082108103611f3757634e487b7160e01b600052602260045260246000fd5b50919050565b634e487b7160e01b600052601160045260246000fd5b808202811582820484141761039057610390611f3d565b600082611f8757634e487b7160e01b600052601260045260246000fd5b500490565b600060018201611f9e57611f9e611f3d565b5060010190565b66697066733a2f2f60c81b815260008251611fc7816007850160208701611a45565b9190910160070192915050565b601f82111561068c57600081815260208120601f850160051c81016020861015611ffb5750805b601f850160051c820191505b818110156113b657828155600101612007565b815167ffffffffffffffff81111561203457612034611bfd565b612048816120428454611f03565b84611fd4565b602080601f83116001811461207d57600084156120655750858301515b600019600386901b1c1916600185901b1785556113b6565b600085815260208120601f198616915b828110156120ac5788860151825594840194600190910190840161208d565b50858210156120ca5787850151600019600388901b60f8161c191681555b5050505050600190811b01905550565b6060815260006120ed6060830186611a69565b82810360208401526120ff8186611a69565b915050826040830152949350505050565b6001600160a01b038581168252841660208201526040810183905260806060820181905260009061214390830184611a69565b9695505050505050565b60006020828403121561215f57600080fd5b815161178881611a12565b6000835161217c818460208801611a45565b835190830190612190818360208801611a45565b0194935050505056fea264697066735822122035be6f6614750b1979f8322d9f04d108ee2424aaa288dc38f28df3fb6e5896dc64736f6c63430008140033",
  "linkReferences": {},
  "deployedLinkReferences": {}
}